{
	"github.com/BLOCKCHAIN/Lottery/OperationAlgebra.sol": {
		"OperationAlgebra": {
			"abi": [
				{
					"inputs": [
						{
							"internalType": "uint256",
							"name": "_a",
							"type": "uint256"
						},
						{
							"internalType": "uint256",
							"name": "_b",
							"type": "uint256"
						}
					],
					"stateMutability": "nonpayable",
					"type": "constructor"
				},
				{
					"inputs": [],
					"name": "a",
					"outputs": [
						{
							"internalType": "uint256",
							"name": "",
							"type": "uint256"
						}
					],
					"stateMutability": "view",
					"type": "function"
				},
				{
					"inputs": [],
					"name": "add",
					"outputs": [
						{
							"internalType": "uint256",
							"name": "",
							"type": "uint256"
						}
					],
					"stateMutability": "view",
					"type": "function"
				},
				{
					"inputs": [],
					"name": "b",
					"outputs": [
						{
							"internalType": "uint256",
							"name": "",
							"type": "uint256"
						}
					],
					"stateMutability": "view",
					"type": "function"
				},
				{
					"inputs": [],
					"name": "dividing",
					"outputs": [
						{
							"internalType": "uint256",
							"name": "",
							"type": "uint256"
						}
					],
					"stateMutability": "view",
					"type": "function"
				},
				{
					"inputs": [],
					"name": "multiply",
					"outputs": [
						{
							"internalType": "uint256",
							"name": "",
							"type": "uint256"
						}
					],
					"stateMutability": "view",
					"type": "function"
				},
				{
					"inputs": [],
					"name": "substract",
					"outputs": [
						{
							"internalType": "uint256",
							"name": "",
							"type": "uint256"
						}
					],
					"stateMutability": "view",
					"type": "function"
				}
			],
			"devdoc": {
				"kind": "dev",
				"methods": {},
				"version": 1
			},
			"evm": {
				"assembly": "    /* \"github.com/BLOCKCHAIN/Lottery/OperationAlgebra.sol\":70:616  contract OperationAlgebra {... */\n  mstore(0x40, 0x80)\n    /* \"github.com/BLOCKCHAIN/Lottery/OperationAlgebra.sol\":198:273  constructor(uint256 _a, uint256 _b) {... */\n  callvalue\n  dup1\n  iszero\n  tag_1\n  jumpi\n  0x00\n  dup1\n  revert\ntag_1:\n  pop\n  mload(0x40)\n  sub(codesize, bytecodeSize)\n  dup1\n  bytecodeSize\n  dup4\n  codecopy\n  dup2\n  dup2\n  add\n  0x40\n  mstore\n  dup2\n  add\n  swap1\n  tag_2\n  swap2\n  swap1\n  tag_3\n  jump\t// in\ntag_2:\n    /* \"github.com/BLOCKCHAIN/Lottery/OperationAlgebra.sol\":248:250  _a */\n  dup2\n    /* \"github.com/BLOCKCHAIN/Lottery/OperationAlgebra.sol\":244:245  a */\n  0x00\n    /* \"github.com/BLOCKCHAIN/Lottery/OperationAlgebra.sol\":244:250  a = _a */\n  dup2\n  swap1\n  sstore\n  pop\n    /* \"github.com/BLOCKCHAIN/Lottery/OperationAlgebra.sol\":264:266  _b */\n  dup1\n    /* \"github.com/BLOCKCHAIN/Lottery/OperationAlgebra.sol\":260:261  b */\n  0x01\n    /* \"github.com/BLOCKCHAIN/Lottery/OperationAlgebra.sol\":260:266  b = _b */\n  dup2\n  swap1\n  sstore\n  pop\n    /* \"github.com/BLOCKCHAIN/Lottery/OperationAlgebra.sol\":198:273  constructor(uint256 _a, uint256 _b) {... */\n  pop\n  pop\n    /* \"github.com/BLOCKCHAIN/Lottery/OperationAlgebra.sol\":70:616  contract OperationAlgebra {... */\n  jump(tag_6)\n    /* \"#utility.yul\":88:205   */\ntag_8:\n    /* \"#utility.yul\":197:198   */\n  0x00\n    /* \"#utility.yul\":194:195   */\n  dup1\n    /* \"#utility.yul\":187:199   */\n  revert\n    /* \"#utility.yul\":334:411   */\ntag_10:\n    /* \"#utility.yul\":371:378   */\n  0x00\n    /* \"#utility.yul\":400:405   */\n  dup2\n    /* \"#utility.yul\":389:405   */\n  swap1\n  pop\n    /* \"#utility.yul\":334:411   */\n  swap2\n  swap1\n  pop\n  jump\t// out\n    /* \"#utility.yul\":417:539   */\ntag_11:\n    /* \"#utility.yul\":490:514   */\n  tag_19\n    /* \"#utility.yul\":508:513   */\n  dup2\n    /* \"#utility.yul\":490:514   */\n  tag_10\n  jump\t// in\ntag_19:\n    /* \"#utility.yul\":483:488   */\n  dup2\n    /* \"#utility.yul\":480:515   */\n  eq\n    /* \"#utility.yul\":470:533   */\n  tag_20\n  jumpi\n    /* \"#utility.yul\":529:530   */\n  0x00\n    /* \"#utility.yul\":526:527   */\n  dup1\n    /* \"#utility.yul\":519:531   */\n  revert\n    /* \"#utility.yul\":470:533   */\ntag_20:\n    /* \"#utility.yul\":417:539   */\n  pop\n  jump\t// out\n    /* \"#utility.yul\":545:688   */\ntag_12:\n    /* \"#utility.yul\":602:607   */\n  0x00\n    /* \"#utility.yul\":633:639   */\n  dup2\n    /* \"#utility.yul\":627:640   */\n  mload\n    /* \"#utility.yul\":618:640   */\n  swap1\n  pop\n    /* \"#utility.yul\":649:682   */\n  tag_22\n    /* \"#utility.yul\":676:681   */\n  dup2\n    /* \"#utility.yul\":649:682   */\n  tag_11\n  jump\t// in\ntag_22:\n    /* \"#utility.yul\":545:688   */\n  swap3\n  swap2\n  pop\n  pop\n  jump\t// out\n    /* \"#utility.yul\":694:1201   */\ntag_3:\n    /* \"#utility.yul\":773:779   */\n  0x00\n    /* \"#utility.yul\":781:787   */\n  dup1\n    /* \"#utility.yul\":830:832   */\n  0x40\n    /* \"#utility.yul\":818:827   */\n  dup4\n    /* \"#utility.yul\":809:816   */\n  dup6\n    /* \"#utility.yul\":805:828   */\n  sub\n    /* \"#utility.yul\":801:833   */\n  slt\n    /* \"#utility.yul\":798:917   */\n  iszero\n  tag_24\n  jumpi\n    /* \"#utility.yul\":836:915   */\n  tag_25\n  tag_8\n  jump\t// in\ntag_25:\n    /* \"#utility.yul\":798:917   */\ntag_24:\n    /* \"#utility.yul\":956:957   */\n  0x00\n    /* \"#utility.yul\":981:1045   */\n  tag_26\n    /* \"#utility.yul\":1037:1044   */\n  dup6\n    /* \"#utility.yul\":1028:1034   */\n  dup3\n    /* \"#utility.yul\":1017:1026   */\n  dup7\n    /* \"#utility.yul\":1013:1035   */\n  add\n    /* \"#utility.yul\":981:1045   */\n  tag_12\n  jump\t// in\ntag_26:\n    /* \"#utility.yul\":971:1045   */\n  swap3\n  pop\n    /* \"#utility.yul\":927:1055   */\n  pop\n    /* \"#utility.yul\":1094:1096   */\n  0x20\n    /* \"#utility.yul\":1120:1184   */\n  tag_27\n    /* \"#utility.yul\":1176:1183   */\n  dup6\n    /* \"#utility.yul\":1167:1173   */\n  dup3\n    /* \"#utility.yul\":1156:1165   */\n  dup7\n    /* \"#utility.yul\":1152:1174   */\n  add\n    /* \"#utility.yul\":1120:1184   */\n  tag_12\n  jump\t// in\ntag_27:\n    /* \"#utility.yul\":1110:1184   */\n  swap2\n  pop\n    /* \"#utility.yul\":1065:1194   */\n  pop\n    /* \"#utility.yul\":694:1201   */\n  swap3\n  pop\n  swap3\n  swap1\n  pop\n  jump\t// out\n    /* \"github.com/BLOCKCHAIN/Lottery/OperationAlgebra.sol\":70:616  contract OperationAlgebra {... */\ntag_6:\n  dataSize(sub_0)\n  dup1\n  dataOffset(sub_0)\n  0x00\n  codecopy\n  0x00\n  return\nstop\n\nsub_0: assembly {\n        /* \"github.com/BLOCKCHAIN/Lottery/OperationAlgebra.sol\":70:616  contract OperationAlgebra {... */\n      mstore(0x40, 0x80)\n      callvalue\n      dup1\n      iszero\n      tag_1\n      jumpi\n      0x00\n      dup1\n      revert\n    tag_1:\n      pop\n      jumpi(tag_2, lt(calldatasize, 0x04))\n      shr(0xe0, calldataload(0x00))\n      dup1\n      0x0dbe671f\n      eq\n      tag_3\n      jumpi\n      dup1\n      0x3ab2a810\n      eq\n      tag_4\n      jumpi\n      dup1\n      0x4df7e3d0\n      eq\n      tag_5\n      jumpi\n      dup1\n      0x4f2be91f\n      eq\n      tag_6\n      jumpi\n      dup1\n      0xdf09a2da\n      eq\n      tag_7\n      jumpi\n      dup1\n      0xf3593cd0\n      eq\n      tag_8\n      jumpi\n    tag_2:\n      0x00\n      dup1\n      revert\n        /* \"github.com/BLOCKCHAIN/Lottery/OperationAlgebra.sol\":133:149  uint256 public a */\n    tag_3:\n      tag_9\n      tag_10\n      jump\t// in\n    tag_9:\n      mload(0x40)\n      tag_11\n      swap2\n      swap1\n      tag_12\n      jump\t// in\n    tag_11:\n      mload(0x40)\n      dup1\n      swap2\n      sub\n      swap1\n      return\n        /* \"github.com/BLOCKCHAIN/Lottery/OperationAlgebra.sol\":534:614  function dividing() public view returns(uint256) {... */\n    tag_4:\n      tag_13\n      tag_14\n      jump\t// in\n    tag_13:\n      mload(0x40)\n      tag_15\n      swap2\n      swap1\n      tag_12\n      jump\t// in\n    tag_15:\n      mload(0x40)\n      dup1\n      swap2\n      sub\n      swap1\n      return\n        /* \"github.com/BLOCKCHAIN/Lottery/OperationAlgebra.sol\":155:171  uint256 public b */\n    tag_5:\n      tag_16\n      tag_17\n      jump\t// in\n    tag_16:\n      mload(0x40)\n      tag_18\n      swap2\n      swap1\n      tag_12\n      jump\t// in\n    tag_18:\n      mload(0x40)\n      dup1\n      swap2\n      sub\n      swap1\n      return\n        /* \"github.com/BLOCKCHAIN/Lottery/OperationAlgebra.sol\":279:355  function add() public view returns (uint256) {... */\n    tag_6:\n      tag_19\n      tag_20\n      jump\t// in\n    tag_19:\n      mload(0x40)\n      tag_21\n      swap2\n      swap1\n      tag_12\n      jump\t// in\n    tag_21:\n      mload(0x40)\n      dup1\n      swap2\n      sub\n      swap1\n      return\n        /* \"github.com/BLOCKCHAIN/Lottery/OperationAlgebra.sol\":361:442  function substract() public view returns(uint256) {... */\n    tag_7:\n      tag_22\n      tag_23\n      jump\t// in\n    tag_22:\n      mload(0x40)\n      tag_24\n      swap2\n      swap1\n      tag_12\n      jump\t// in\n    tag_24:\n      mload(0x40)\n      dup1\n      swap2\n      sub\n      swap1\n      return\n        /* \"github.com/BLOCKCHAIN/Lottery/OperationAlgebra.sol\":448:528  function multiply() public view returns(uint256) {... */\n    tag_8:\n      tag_25\n      tag_26\n      jump\t// in\n    tag_25:\n      mload(0x40)\n      tag_27\n      swap2\n      swap1\n      tag_12\n      jump\t// in\n    tag_27:\n      mload(0x40)\n      dup1\n      swap2\n      sub\n      swap1\n      return\n        /* \"github.com/BLOCKCHAIN/Lottery/OperationAlgebra.sol\":133:149  uint256 public a */\n    tag_10:\n      sload(0x00)\n      dup2\n      jump\t// out\n        /* \"github.com/BLOCKCHAIN/Lottery/OperationAlgebra.sol\":534:614  function dividing() public view returns(uint256) {... */\n    tag_14:\n        /* \"github.com/BLOCKCHAIN/Lottery/OperationAlgebra.sol\":574:581  uint256 */\n      0x00\n        /* \"github.com/BLOCKCHAIN/Lottery/OperationAlgebra.sol\":605:606  b */\n      sload(0x01)\n        /* \"github.com/BLOCKCHAIN/Lottery/OperationAlgebra.sol\":601:602  a */\n      sload(0x00)\n        /* \"github.com/BLOCKCHAIN/Lottery/OperationAlgebra.sol\":601:606  a / b */\n      tag_29\n      swap2\n      swap1\n      tag_30\n      jump\t// in\n    tag_29:\n        /* \"github.com/BLOCKCHAIN/Lottery/OperationAlgebra.sol\":593:607  return (a / b) */\n      swap1\n      pop\n        /* \"github.com/BLOCKCHAIN/Lottery/OperationAlgebra.sol\":534:614  function dividing() public view returns(uint256) {... */\n      swap1\n      jump\t// out\n        /* \"github.com/BLOCKCHAIN/Lottery/OperationAlgebra.sol\":155:171  uint256 public b */\n    tag_17:\n      sload(0x01)\n      dup2\n      jump\t// out\n        /* \"github.com/BLOCKCHAIN/Lottery/OperationAlgebra.sol\":279:355  function add() public view returns (uint256) {... */\n    tag_20:\n        /* \"github.com/BLOCKCHAIN/Lottery/OperationAlgebra.sol\":315:322  uint256 */\n      0x00\n        /* \"github.com/BLOCKCHAIN/Lottery/OperationAlgebra.sol\":346:347  b */\n      sload(0x01)\n        /* \"github.com/BLOCKCHAIN/Lottery/OperationAlgebra.sol\":342:343  a */\n      sload(0x00)\n        /* \"github.com/BLOCKCHAIN/Lottery/OperationAlgebra.sol\":342:347  a + b */\n      tag_32\n      swap2\n      swap1\n      tag_33\n      jump\t// in\n    tag_32:\n        /* \"github.com/BLOCKCHAIN/Lottery/OperationAlgebra.sol\":334:348  return (a + b) */\n      swap1\n      pop\n        /* \"github.com/BLOCKCHAIN/Lottery/OperationAlgebra.sol\":279:355  function add() public view returns (uint256) {... */\n      swap1\n      jump\t// out\n        /* \"github.com/BLOCKCHAIN/Lottery/OperationAlgebra.sol\":361:442  function substract() public view returns(uint256) {... */\n    tag_23:\n        /* \"github.com/BLOCKCHAIN/Lottery/OperationAlgebra.sol\":402:409  uint256 */\n      0x00\n        /* \"github.com/BLOCKCHAIN/Lottery/OperationAlgebra.sol\":433:434  b */\n      sload(0x01)\n        /* \"github.com/BLOCKCHAIN/Lottery/OperationAlgebra.sol\":429:430  a */\n      sload(0x00)\n        /* \"github.com/BLOCKCHAIN/Lottery/OperationAlgebra.sol\":429:434  a - b */\n      tag_35\n      swap2\n      swap1\n      tag_36\n      jump\t// in\n    tag_35:\n        /* \"github.com/BLOCKCHAIN/Lottery/OperationAlgebra.sol\":421:435  return (a - b) */\n      swap1\n      pop\n        /* \"github.com/BLOCKCHAIN/Lottery/OperationAlgebra.sol\":361:442  function substract() public view returns(uint256) {... */\n      swap1\n      jump\t// out\n        /* \"github.com/BLOCKCHAIN/Lottery/OperationAlgebra.sol\":448:528  function multiply() public view returns(uint256) {... */\n    tag_26:\n        /* \"github.com/BLOCKCHAIN/Lottery/OperationAlgebra.sol\":488:495  uint256 */\n      0x00\n        /* \"github.com/BLOCKCHAIN/Lottery/OperationAlgebra.sol\":519:520  b */\n      sload(0x01)\n        /* \"github.com/BLOCKCHAIN/Lottery/OperationAlgebra.sol\":515:516  a */\n      sload(0x00)\n        /* \"github.com/BLOCKCHAIN/Lottery/OperationAlgebra.sol\":515:520  a * b */\n      tag_38\n      swap2\n      swap1\n      tag_39\n      jump\t// in\n    tag_38:\n        /* \"github.com/BLOCKCHAIN/Lottery/OperationAlgebra.sol\":507:521  return (a * b) */\n      swap1\n      pop\n        /* \"github.com/BLOCKCHAIN/Lottery/OperationAlgebra.sol\":448:528  function multiply() public view returns(uint256) {... */\n      swap1\n      jump\t// out\n        /* \"#utility.yul\":7:84   */\n    tag_40:\n        /* \"#utility.yul\":44:51   */\n      0x00\n        /* \"#utility.yul\":73:78   */\n      dup2\n        /* \"#utility.yul\":62:78   */\n      swap1\n      pop\n        /* \"#utility.yul\":7:84   */\n      swap2\n      swap1\n      pop\n      jump\t// out\n        /* \"#utility.yul\":90:208   */\n    tag_41:\n        /* \"#utility.yul\":177:201   */\n      tag_47\n        /* \"#utility.yul\":195:200   */\n      dup2\n        /* \"#utility.yul\":177:201   */\n      tag_40\n      jump\t// in\n    tag_47:\n        /* \"#utility.yul\":172:175   */\n      dup3\n        /* \"#utility.yul\":165:202   */\n      mstore\n        /* \"#utility.yul\":90:208   */\n      pop\n      pop\n      jump\t// out\n        /* \"#utility.yul\":214:436   */\n    tag_12:\n        /* \"#utility.yul\":307:311   */\n      0x00\n        /* \"#utility.yul\":345:347   */\n      0x20\n        /* \"#utility.yul\":334:343   */\n      dup3\n        /* \"#utility.yul\":330:348   */\n      add\n        /* \"#utility.yul\":322:348   */\n      swap1\n      pop\n        /* \"#utility.yul\":358:429   */\n      tag_49\n        /* \"#utility.yul\":426:427   */\n      0x00\n        /* \"#utility.yul\":415:424   */\n      dup4\n        /* \"#utility.yul\":411:428   */\n      add\n        /* \"#utility.yul\":402:408   */\n      dup5\n        /* \"#utility.yul\":358:429   */\n      tag_41\n      jump\t// in\n    tag_49:\n        /* \"#utility.yul\":214:436   */\n      swap3\n      swap2\n      pop\n      pop\n      jump\t// out\n        /* \"#utility.yul\":442:622   */\n    tag_42:\n        /* \"#utility.yul\":490:567   */\n      0x4e487b7100000000000000000000000000000000000000000000000000000000\n        /* \"#utility.yul\":487:488   */\n      0x00\n        /* \"#utility.yul\":480:568   */\n      mstore\n        /* \"#utility.yul\":587:591   */\n      0x12\n        /* \"#utility.yul\":584:585   */\n      0x04\n        /* \"#utility.yul\":577:592   */\n      mstore\n        /* \"#utility.yul\":611:615   */\n      0x24\n        /* \"#utility.yul\":608:609   */\n      0x00\n        /* \"#utility.yul\":601:616   */\n      revert\n        /* \"#utility.yul\":628:808   */\n    tag_43:\n        /* \"#utility.yul\":676:753   */\n      0x4e487b7100000000000000000000000000000000000000000000000000000000\n        /* \"#utility.yul\":673:674   */\n      0x00\n        /* \"#utility.yul\":666:754   */\n      mstore\n        /* \"#utility.yul\":773:777   */\n      0x11\n        /* \"#utility.yul\":770:771   */\n      0x04\n        /* \"#utility.yul\":763:778   */\n      mstore\n        /* \"#utility.yul\":797:801   */\n      0x24\n        /* \"#utility.yul\":794:795   */\n      0x00\n        /* \"#utility.yul\":787:802   */\n      revert\n        /* \"#utility.yul\":814:999   */\n    tag_30:\n        /* \"#utility.yul\":854:855   */\n      0x00\n        /* \"#utility.yul\":871:891   */\n      tag_53\n        /* \"#utility.yul\":889:890   */\n      dup3\n        /* \"#utility.yul\":871:891   */\n      tag_40\n      jump\t// in\n    tag_53:\n        /* \"#utility.yul\":866:891   */\n      swap2\n      pop\n        /* \"#utility.yul\":905:925   */\n      tag_54\n        /* \"#utility.yul\":923:924   */\n      dup4\n        /* \"#utility.yul\":905:925   */\n      tag_40\n      jump\t// in\n    tag_54:\n        /* \"#utility.yul\":900:925   */\n      swap3\n      pop\n        /* \"#utility.yul\":944:945   */\n      dup3\n        /* \"#utility.yul\":934:969   */\n      tag_55\n      jumpi\n        /* \"#utility.yul\":949:967   */\n      tag_56\n      tag_42\n      jump\t// in\n    tag_56:\n        /* \"#utility.yul\":934:969   */\n    tag_55:\n        /* \"#utility.yul\":991:992   */\n      dup3\n        /* \"#utility.yul\":988:989   */\n      dup3\n        /* \"#utility.yul\":984:993   */\n      div\n        /* \"#utility.yul\":979:993   */\n      swap1\n      pop\n        /* \"#utility.yul\":814:999   */\n      swap3\n      swap2\n      pop\n      pop\n      jump\t// out\n        /* \"#utility.yul\":1005:1196   */\n    tag_33:\n        /* \"#utility.yul\":1045:1048   */\n      0x00\n        /* \"#utility.yul\":1064:1084   */\n      tag_58\n        /* \"#utility.yul\":1082:1083   */\n      dup3\n        /* \"#utility.yul\":1064:1084   */\n      tag_40\n      jump\t// in\n    tag_58:\n        /* \"#utility.yul\":1059:1084   */\n      swap2\n      pop\n        /* \"#utility.yul\":1098:1118   */\n      tag_59\n        /* \"#utility.yul\":1116:1117   */\n      dup4\n        /* \"#utility.yul\":1098:1118   */\n      tag_40\n      jump\t// in\n    tag_59:\n        /* \"#utility.yul\":1093:1118   */\n      swap3\n      pop\n        /* \"#utility.yul\":1141:1142   */\n      dup3\n        /* \"#utility.yul\":1138:1139   */\n      dup3\n        /* \"#utility.yul\":1134:1143   */\n      add\n        /* \"#utility.yul\":1127:1143   */\n      swap1\n      pop\n        /* \"#utility.yul\":1162:1165   */\n      dup1\n        /* \"#utility.yul\":1159:1160   */\n      dup3\n        /* \"#utility.yul\":1156:1166   */\n      gt\n        /* \"#utility.yul\":1153:1189   */\n      iszero\n      tag_60\n      jumpi\n        /* \"#utility.yul\":1169:1187   */\n      tag_61\n      tag_43\n      jump\t// in\n    tag_61:\n        /* \"#utility.yul\":1153:1189   */\n    tag_60:\n        /* \"#utility.yul\":1005:1196   */\n      swap3\n      swap2\n      pop\n      pop\n      jump\t// out\n        /* \"#utility.yul\":1202:1396   */\n    tag_36:\n        /* \"#utility.yul\":1242:1246   */\n      0x00\n        /* \"#utility.yul\":1262:1282   */\n      tag_63\n        /* \"#utility.yul\":1280:1281   */\n      dup3\n        /* \"#utility.yul\":1262:1282   */\n      tag_40\n      jump\t// in\n    tag_63:\n        /* \"#utility.yul\":1257:1282   */\n      swap2\n      pop\n        /* \"#utility.yul\":1296:1316   */\n      tag_64\n        /* \"#utility.yul\":1314:1315   */\n      dup4\n        /* \"#utility.yul\":1296:1316   */\n      tag_40\n      jump\t// in\n    tag_64:\n        /* \"#utility.yul\":1291:1316   */\n      swap3\n      pop\n        /* \"#utility.yul\":1340:1341   */\n      dup3\n        /* \"#utility.yul\":1337:1338   */\n      dup3\n        /* \"#utility.yul\":1333:1342   */\n      sub\n        /* \"#utility.yul\":1325:1342   */\n      swap1\n      pop\n        /* \"#utility.yul\":1364:1365   */\n      dup2\n        /* \"#utility.yul\":1358:1362   */\n      dup2\n        /* \"#utility.yul\":1355:1366   */\n      gt\n        /* \"#utility.yul\":1352:1389   */\n      iszero\n      tag_65\n      jumpi\n        /* \"#utility.yul\":1369:1387   */\n      tag_66\n      tag_43\n      jump\t// in\n    tag_66:\n        /* \"#utility.yul\":1352:1389   */\n    tag_65:\n        /* \"#utility.yul\":1202:1396   */\n      swap3\n      swap2\n      pop\n      pop\n      jump\t// out\n        /* \"#utility.yul\":1402:1812   */\n    tag_39:\n        /* \"#utility.yul\":1442:1449   */\n      0x00\n        /* \"#utility.yul\":1465:1485   */\n      tag_68\n        /* \"#utility.yul\":1483:1484   */\n      dup3\n        /* \"#utility.yul\":1465:1485   */\n      tag_40\n      jump\t// in\n    tag_68:\n        /* \"#utility.yul\":1460:1485   */\n      swap2\n      pop\n        /* \"#utility.yul\":1499:1519   */\n      tag_69\n        /* \"#utility.yul\":1517:1518   */\n      dup4\n        /* \"#utility.yul\":1499:1519   */\n      tag_40\n      jump\t// in\n    tag_69:\n        /* \"#utility.yul\":1494:1519   */\n      swap3\n      pop\n        /* \"#utility.yul\":1554:1555   */\n      dup3\n        /* \"#utility.yul\":1551:1552   */\n      dup3\n        /* \"#utility.yul\":1547:1556   */\n      mul\n        /* \"#utility.yul\":1576:1606   */\n      tag_70\n        /* \"#utility.yul\":1594:1605   */\n      dup2\n        /* \"#utility.yul\":1576:1606   */\n      tag_40\n      jump\t// in\n    tag_70:\n        /* \"#utility.yul\":1565:1606   */\n      swap2\n      pop\n        /* \"#utility.yul\":1755:1756   */\n      dup3\n        /* \"#utility.yul\":1746:1753   */\n      dup3\n        /* \"#utility.yul\":1742:1757   */\n      div\n        /* \"#utility.yul\":1739:1740   */\n      dup5\n        /* \"#utility.yul\":1736:1758   */\n      eq\n        /* \"#utility.yul\":1716:1717   */\n      dup4\n        /* \"#utility.yul\":1709:1718   */\n      iszero\n        /* \"#utility.yul\":1689:1772   */\n      or\n        /* \"#utility.yul\":1666:1805   */\n      tag_71\n      jumpi\n        /* \"#utility.yul\":1785:1803   */\n      tag_72\n      tag_43\n      jump\t// in\n    tag_72:\n        /* \"#utility.yul\":1666:1805   */\n    tag_71:\n        /* \"#utility.yul\":1450:1812   */\n      pop\n        /* \"#utility.yul\":1402:1812   */\n      swap3\n      swap2\n      pop\n      pop\n      jump\t// out\n\n    auxdata: 0xa264697066735822122098e0decfab4465bf15ab0a03491cb0a5bdef1a9aeeae580f841db24b977c386c64736f6c63430008160033\n}\n",
				"bytecode": {
					"linkReferences": {},
					"object": "608060405234801561000f575f80fd5b506040516103d63803806103d68339818101604052810190610031919061007c565b815f819055508060018190555050506100ba565b5f80fd5b5f819050919050565b61005b81610049565b8114610065575f80fd5b50565b5f8151905061007681610052565b92915050565b5f806040838503121561009257610091610045565b5b5f61009f85828601610068565b92505060206100b085828601610068565b9150509250929050565b61030f806100c75f395ff3fe608060405234801561000f575f80fd5b5060043610610060575f3560e01c80630dbe671f146100645780633ab2a810146100825780634df7e3d0146100a05780634f2be91f146100be578063df09a2da146100dc578063f3593cd0146100fa575b5f80fd5b61006c610118565b604051610079919061018f565b60405180910390f35b61008a61011d565b604051610097919061018f565b60405180910390f35b6100a8610132565b6040516100b5919061018f565b60405180910390f35b6100c6610138565b6040516100d3919061018f565b60405180910390f35b6100e461014d565b6040516100f1919061018f565b60405180910390f35b610102610162565b60405161010f919061018f565b60405180910390f35b5f5481565b5f6001545f5461012d9190610202565b905090565b60015481565b5f6001545f546101489190610232565b905090565b5f6001545f5461015d9190610265565b905090565b5f6001545f546101729190610298565b905090565b5f819050919050565b61018981610177565b82525050565b5f6020820190506101a25f830184610180565b92915050565b7f4e487b71000000000000000000000000000000000000000000000000000000005f52601260045260245ffd5b7f4e487b71000000000000000000000000000000000000000000000000000000005f52601160045260245ffd5b5f61020c82610177565b915061021783610177565b925082610227576102266101a8565b5b828204905092915050565b5f61023c82610177565b915061024783610177565b925082820190508082111561025f5761025e6101d5565b5b92915050565b5f61026f82610177565b915061027a83610177565b9250828203905081811115610292576102916101d5565b5b92915050565b5f6102a282610177565b91506102ad83610177565b92508282026102bb81610177565b915082820484148315176102d2576102d16101d5565b5b509291505056fea264697066735822122098e0decfab4465bf15ab0a03491cb0a5bdef1a9aeeae580f841db24b977c386c64736f6c63430008160033",
					"opcodes": "PUSH1 0x80 PUSH1 0x40 MSTORE CALLVALUE DUP1 ISZERO PUSH2 0xF JUMPI PUSH0 DUP1 REVERT JUMPDEST POP PUSH1 0x40 MLOAD PUSH2 0x3D6 CODESIZE SUB DUP1 PUSH2 0x3D6 DUP4 CODECOPY DUP2 DUP2 ADD PUSH1 0x40 MSTORE DUP2 ADD SWAP1 PUSH2 0x31 SWAP2 SWAP1 PUSH2 0x7C JUMP JUMPDEST DUP2 PUSH0 DUP2 SWAP1 SSTORE POP DUP1 PUSH1 0x1 DUP2 SWAP1 SSTORE POP POP POP PUSH2 0xBA JUMP JUMPDEST PUSH0 DUP1 REVERT JUMPDEST PUSH0 DUP2 SWAP1 POP SWAP2 SWAP1 POP JUMP JUMPDEST PUSH2 0x5B DUP2 PUSH2 0x49 JUMP JUMPDEST DUP2 EQ PUSH2 0x65 JUMPI PUSH0 DUP1 REVERT JUMPDEST POP JUMP JUMPDEST PUSH0 DUP2 MLOAD SWAP1 POP PUSH2 0x76 DUP2 PUSH2 0x52 JUMP JUMPDEST SWAP3 SWAP2 POP POP JUMP JUMPDEST PUSH0 DUP1 PUSH1 0x40 DUP4 DUP6 SUB SLT ISZERO PUSH2 0x92 JUMPI PUSH2 0x91 PUSH2 0x45 JUMP JUMPDEST JUMPDEST PUSH0 PUSH2 0x9F DUP6 DUP3 DUP7 ADD PUSH2 0x68 JUMP JUMPDEST SWAP3 POP POP PUSH1 0x20 PUSH2 0xB0 DUP6 DUP3 DUP7 ADD PUSH2 0x68 JUMP JUMPDEST SWAP2 POP POP SWAP3 POP SWAP3 SWAP1 POP JUMP JUMPDEST PUSH2 0x30F DUP1 PUSH2 0xC7 PUSH0 CODECOPY PUSH0 RETURN INVALID PUSH1 0x80 PUSH1 0x40 MSTORE CALLVALUE DUP1 ISZERO PUSH2 0xF JUMPI PUSH0 DUP1 REVERT JUMPDEST POP PUSH1 0x4 CALLDATASIZE LT PUSH2 0x60 JUMPI PUSH0 CALLDATALOAD PUSH1 0xE0 SHR DUP1 PUSH4 0xDBE671F EQ PUSH2 0x64 JUMPI DUP1 PUSH4 0x3AB2A810 EQ PUSH2 0x82 JUMPI DUP1 PUSH4 0x4DF7E3D0 EQ PUSH2 0xA0 JUMPI DUP1 PUSH4 0x4F2BE91F EQ PUSH2 0xBE JUMPI DUP1 PUSH4 0xDF09A2DA EQ PUSH2 0xDC JUMPI DUP1 PUSH4 0xF3593CD0 EQ PUSH2 0xFA JUMPI JUMPDEST PUSH0 DUP1 REVERT JUMPDEST PUSH2 0x6C PUSH2 0x118 JUMP JUMPDEST PUSH1 0x40 MLOAD PUSH2 0x79 SWAP2 SWAP1 PUSH2 0x18F JUMP JUMPDEST PUSH1 0x40 MLOAD DUP1 SWAP2 SUB SWAP1 RETURN JUMPDEST PUSH2 0x8A PUSH2 0x11D JUMP JUMPDEST PUSH1 0x40 MLOAD PUSH2 0x97 SWAP2 SWAP1 PUSH2 0x18F JUMP JUMPDEST PUSH1 0x40 MLOAD DUP1 SWAP2 SUB SWAP1 RETURN JUMPDEST PUSH2 0xA8 PUSH2 0x132 JUMP JUMPDEST PUSH1 0x40 MLOAD PUSH2 0xB5 SWAP2 SWAP1 PUSH2 0x18F JUMP JUMPDEST PUSH1 0x40 MLOAD DUP1 SWAP2 SUB SWAP1 RETURN JUMPDEST PUSH2 0xC6 PUSH2 0x138 JUMP JUMPDEST PUSH1 0x40 MLOAD PUSH2 0xD3 SWAP2 SWAP1 PUSH2 0x18F JUMP JUMPDEST PUSH1 0x40 MLOAD DUP1 SWAP2 SUB SWAP1 RETURN JUMPDEST PUSH2 0xE4 PUSH2 0x14D JUMP JUMPDEST PUSH1 0x40 MLOAD PUSH2 0xF1 SWAP2 SWAP1 PUSH2 0x18F JUMP JUMPDEST PUSH1 0x40 MLOAD DUP1 SWAP2 SUB SWAP1 RETURN JUMPDEST PUSH2 0x102 PUSH2 0x162 JUMP JUMPDEST PUSH1 0x40 MLOAD PUSH2 0x10F SWAP2 SWAP1 PUSH2 0x18F JUMP JUMPDEST PUSH1 0x40 MLOAD DUP1 SWAP2 SUB SWAP1 RETURN JUMPDEST PUSH0 SLOAD DUP2 JUMP JUMPDEST PUSH0 PUSH1 0x1 SLOAD PUSH0 SLOAD PUSH2 0x12D SWAP2 SWAP1 PUSH2 0x202 JUMP JUMPDEST SWAP1 POP SWAP1 JUMP JUMPDEST PUSH1 0x1 SLOAD DUP2 JUMP JUMPDEST PUSH0 PUSH1 0x1 SLOAD PUSH0 SLOAD PUSH2 0x148 SWAP2 SWAP1 PUSH2 0x232 JUMP JUMPDEST SWAP1 POP SWAP1 JUMP JUMPDEST PUSH0 PUSH1 0x1 SLOAD PUSH0 SLOAD PUSH2 0x15D SWAP2 SWAP1 PUSH2 0x265 JUMP JUMPDEST SWAP1 POP SWAP1 JUMP JUMPDEST PUSH0 PUSH1 0x1 SLOAD PUSH0 SLOAD PUSH2 0x172 SWAP2 SWAP1 PUSH2 0x298 JUMP JUMPDEST SWAP1 POP SWAP1 JUMP JUMPDEST PUSH0 DUP2 SWAP1 POP SWAP2 SWAP1 POP JUMP JUMPDEST PUSH2 0x189 DUP2 PUSH2 0x177 JUMP JUMPDEST DUP3 MSTORE POP POP JUMP JUMPDEST PUSH0 PUSH1 0x20 DUP3 ADD SWAP1 POP PUSH2 0x1A2 PUSH0 DUP4 ADD DUP5 PUSH2 0x180 JUMP JUMPDEST SWAP3 SWAP2 POP POP JUMP JUMPDEST PUSH32 0x4E487B7100000000000000000000000000000000000000000000000000000000 PUSH0 MSTORE PUSH1 0x12 PUSH1 0x4 MSTORE PUSH1 0x24 PUSH0 REVERT JUMPDEST PUSH32 0x4E487B7100000000000000000000000000000000000000000000000000000000 PUSH0 MSTORE PUSH1 0x11 PUSH1 0x4 MSTORE PUSH1 0x24 PUSH0 REVERT JUMPDEST PUSH0 PUSH2 0x20C DUP3 PUSH2 0x177 JUMP JUMPDEST SWAP2 POP PUSH2 0x217 DUP4 PUSH2 0x177 JUMP JUMPDEST SWAP3 POP DUP3 PUSH2 0x227 JUMPI PUSH2 0x226 PUSH2 0x1A8 JUMP JUMPDEST JUMPDEST DUP3 DUP3 DIV SWAP1 POP SWAP3 SWAP2 POP POP JUMP JUMPDEST PUSH0 PUSH2 0x23C DUP3 PUSH2 0x177 JUMP JUMPDEST SWAP2 POP PUSH2 0x247 DUP4 PUSH2 0x177 JUMP JUMPDEST SWAP3 POP DUP3 DUP3 ADD SWAP1 POP DUP1 DUP3 GT ISZERO PUSH2 0x25F JUMPI PUSH2 0x25E PUSH2 0x1D5 JUMP JUMPDEST JUMPDEST SWAP3 SWAP2 POP POP JUMP JUMPDEST PUSH0 PUSH2 0x26F DUP3 PUSH2 0x177 JUMP JUMPDEST SWAP2 POP PUSH2 0x27A DUP4 PUSH2 0x177 JUMP JUMPDEST SWAP3 POP DUP3 DUP3 SUB SWAP1 POP DUP2 DUP2 GT ISZERO PUSH2 0x292 JUMPI PUSH2 0x291 PUSH2 0x1D5 JUMP JUMPDEST JUMPDEST SWAP3 SWAP2 POP POP JUMP JUMPDEST PUSH0 PUSH2 0x2A2 DUP3 PUSH2 0x177 JUMP JUMPDEST SWAP2 POP PUSH2 0x2AD DUP4 PUSH2 0x177 JUMP JUMPDEST SWAP3 POP DUP3 DUP3 MUL PUSH2 0x2BB DUP2 PUSH2 0x177 JUMP JUMPDEST SWAP2 POP DUP3 DUP3 DIV DUP5 EQ DUP4 ISZERO OR PUSH2 0x2D2 JUMPI PUSH2 0x2D1 PUSH2 0x1D5 JUMP JUMPDEST JUMPDEST POP SWAP3 SWAP2 POP POP JUMP INVALID LOG2 PUSH5 0x6970667358 0x22 SLT KECCAK256 SWAP9 0xE0 0xDE 0xCF 0xAB PREVRANDAO PUSH6 0xBF15AB0A0349 SHR 0xB0 0xA5 0xBD 0xEF BYTE SWAP11 0xEE 0xAE PC 0xF DUP5 SAR 0xB2 0x4B SWAP8 PUSH29 0x386C64736F6C6343000816003300000000000000000000000000000000 "
				},
				"gasEstimates": {
					"creation": {
						"codeDepositCost": "156600",
						"executionCost": "infinite",
						"totalCost": "infinite"
					},
					"external": {
						"a()": "2402",
						"add()": "infinite",
						"b()": "2447",
						"dividing()": "infinite",
						"multiply()": "infinite",
						"substract()": "infinite"
					}
				},
				"methodIdentifiers": {
					"a()": "0dbe671f",
					"add()": "4f2be91f",
					"b()": "4df7e3d0",
					"dividing()": "3ab2a810",
					"multiply()": "f3593cd0",
					"substract()": "df09a2da"
				}
			},
			"storageLayout": {
				"storage": [
					{
						"astId": 3,
						"contract": "github.com/BLOCKCHAIN/Lottery/OperationAlgebra.sol:OperationAlgebra",
						"label": "a",
						"offset": 0,
						"slot": "0",
						"type": "t_uint256"
					},
					{
						"astId": 5,
						"contract": "github.com/BLOCKCHAIN/Lottery/OperationAlgebra.sol:OperationAlgebra",
						"label": "b",
						"offset": 0,
						"slot": "1",
						"type": "t_uint256"
					}
				],
				"types": {
					"t_uint256": {
						"encoding": "inplace",
						"label": "uint256",
						"numberOfBytes": "32"
					}
				}
			},
			"userdoc": {
				"kind": "user",
				"methods": {},
				"version": 1
			}
		}
	}
}