{
	"github.com/BLOCKCHAIN/Lottery/operation_math.sol": {
		"OperationAlgebra": {
			"abi": [
				{
					"inputs": [
						{
							"internalType": "uint256",
							"name": "_a",
							"type": "uint256"
						},
						{
							"internalType": "uint256",
							"name": "_b",
							"type": "uint256"
						}
					],
					"stateMutability": "nonpayable",
					"type": "constructor"
				},
				{
					"inputs": [],
					"name": "a",
					"outputs": [
						{
							"internalType": "uint256",
							"name": "",
							"type": "uint256"
						}
					],
					"stateMutability": "view",
					"type": "function"
				},
				{
					"inputs": [],
					"name": "add",
					"outputs": [
						{
							"internalType": "uint256",
							"name": "",
							"type": "uint256"
						}
					],
					"stateMutability": "view",
					"type": "function"
				},
				{
					"inputs": [],
					"name": "b",
					"outputs": [
						{
							"internalType": "uint256",
							"name": "",
							"type": "uint256"
						}
					],
					"stateMutability": "view",
					"type": "function"
				},
				{
					"inputs": [],
					"name": "multiply",
					"outputs": [
						{
							"internalType": "uint256",
							"name": "",
							"type": "uint256"
						}
					],
					"stateMutability": "view",
					"type": "function"
				},
				{
					"inputs": [],
					"name": "substract",
					"outputs": [
						{
							"internalType": "uint256",
							"name": "",
							"type": "uint256"
						}
					],
					"stateMutability": "view",
					"type": "function"
				}
			],
			"devdoc": {
				"kind": "dev",
				"methods": {},
				"version": 1
			},
			"evm": {
				"assembly": "    /* \"github.com/BLOCKCHAIN/Lottery/operation_math.sol\":70:530  contract OperationAlgebra {... */\n  mstore(0x40, 0x80)\n    /* \"github.com/BLOCKCHAIN/Lottery/operation_math.sol\":198:273  constructor(uint256 _a, uint256 _b) {... */\n  callvalue\n  dup1\n  iszero\n  tag_1\n  jumpi\n  0x00\n  dup1\n  revert\ntag_1:\n  pop\n  mload(0x40)\n  sub(codesize, bytecodeSize)\n  dup1\n  bytecodeSize\n  dup4\n  codecopy\n  dup2\n  dup2\n  add\n  0x40\n  mstore\n  dup2\n  add\n  swap1\n  tag_2\n  swap2\n  swap1\n  tag_3\n  jump\t// in\ntag_2:\n    /* \"github.com/BLOCKCHAIN/Lottery/operation_math.sol\":248:250  _a */\n  dup2\n    /* \"github.com/BLOCKCHAIN/Lottery/operation_math.sol\":244:245  a */\n  0x00\n    /* \"github.com/BLOCKCHAIN/Lottery/operation_math.sol\":244:250  a = _a */\n  dup2\n  swap1\n  sstore\n  pop\n    /* \"github.com/BLOCKCHAIN/Lottery/operation_math.sol\":264:266  _b */\n  dup1\n    /* \"github.com/BLOCKCHAIN/Lottery/operation_math.sol\":260:261  b */\n  0x01\n    /* \"github.com/BLOCKCHAIN/Lottery/operation_math.sol\":260:266  b = _b */\n  dup2\n  swap1\n  sstore\n  pop\n    /* \"github.com/BLOCKCHAIN/Lottery/operation_math.sol\":198:273  constructor(uint256 _a, uint256 _b) {... */\n  pop\n  pop\n    /* \"github.com/BLOCKCHAIN/Lottery/operation_math.sol\":70:530  contract OperationAlgebra {... */\n  jump(tag_6)\n    /* \"#utility.yul\":88:205   */\ntag_8:\n    /* \"#utility.yul\":197:198   */\n  0x00\n    /* \"#utility.yul\":194:195   */\n  dup1\n    /* \"#utility.yul\":187:199   */\n  revert\n    /* \"#utility.yul\":334:411   */\ntag_10:\n    /* \"#utility.yul\":371:378   */\n  0x00\n    /* \"#utility.yul\":400:405   */\n  dup2\n    /* \"#utility.yul\":389:405   */\n  swap1\n  pop\n    /* \"#utility.yul\":334:411   */\n  swap2\n  swap1\n  pop\n  jump\t// out\n    /* \"#utility.yul\":417:539   */\ntag_11:\n    /* \"#utility.yul\":490:514   */\n  tag_19\n    /* \"#utility.yul\":508:513   */\n  dup2\n    /* \"#utility.yul\":490:514   */\n  tag_10\n  jump\t// in\ntag_19:\n    /* \"#utility.yul\":483:488   */\n  dup2\n    /* \"#utility.yul\":480:515   */\n  eq\n    /* \"#utility.yul\":470:533   */\n  tag_20\n  jumpi\n    /* \"#utility.yul\":529:530   */\n  0x00\n    /* \"#utility.yul\":526:527   */\n  dup1\n    /* \"#utility.yul\":519:531   */\n  revert\n    /* \"#utility.yul\":470:533   */\ntag_20:\n    /* \"#utility.yul\":417:539   */\n  pop\n  jump\t// out\n    /* \"#utility.yul\":545:688   */\ntag_12:\n    /* \"#utility.yul\":602:607   */\n  0x00\n    /* \"#utility.yul\":633:639   */\n  dup2\n    /* \"#utility.yul\":627:640   */\n  mload\n    /* \"#utility.yul\":618:640   */\n  swap1\n  pop\n    /* \"#utility.yul\":649:682   */\n  tag_22\n    /* \"#utility.yul\":676:681   */\n  dup2\n    /* \"#utility.yul\":649:682   */\n  tag_11\n  jump\t// in\ntag_22:\n    /* \"#utility.yul\":545:688   */\n  swap3\n  swap2\n  pop\n  pop\n  jump\t// out\n    /* \"#utility.yul\":694:1201   */\ntag_3:\n    /* \"#utility.yul\":773:779   */\n  0x00\n    /* \"#utility.yul\":781:787   */\n  dup1\n    /* \"#utility.yul\":830:832   */\n  0x40\n    /* \"#utility.yul\":818:827   */\n  dup4\n    /* \"#utility.yul\":809:816   */\n  dup6\n    /* \"#utility.yul\":805:828   */\n  sub\n    /* \"#utility.yul\":801:833   */\n  slt\n    /* \"#utility.yul\":798:917   */\n  iszero\n  tag_24\n  jumpi\n    /* \"#utility.yul\":836:915   */\n  tag_25\n  tag_8\n  jump\t// in\ntag_25:\n    /* \"#utility.yul\":798:917   */\ntag_24:\n    /* \"#utility.yul\":956:957   */\n  0x00\n    /* \"#utility.yul\":981:1045   */\n  tag_26\n    /* \"#utility.yul\":1037:1044   */\n  dup6\n    /* \"#utility.yul\":1028:1034   */\n  dup3\n    /* \"#utility.yul\":1017:1026   */\n  dup7\n    /* \"#utility.yul\":1013:1035   */\n  add\n    /* \"#utility.yul\":981:1045   */\n  tag_12\n  jump\t// in\ntag_26:\n    /* \"#utility.yul\":971:1045   */\n  swap3\n  pop\n    /* \"#utility.yul\":927:1055   */\n  pop\n    /* \"#utility.yul\":1094:1096   */\n  0x20\n    /* \"#utility.yul\":1120:1184   */\n  tag_27\n    /* \"#utility.yul\":1176:1183   */\n  dup6\n    /* \"#utility.yul\":1167:1173   */\n  dup3\n    /* \"#utility.yul\":1156:1165   */\n  dup7\n    /* \"#utility.yul\":1152:1174   */\n  add\n    /* \"#utility.yul\":1120:1184   */\n  tag_12\n  jump\t// in\ntag_27:\n    /* \"#utility.yul\":1110:1184   */\n  swap2\n  pop\n    /* \"#utility.yul\":1065:1194   */\n  pop\n    /* \"#utility.yul\":694:1201   */\n  swap3\n  pop\n  swap3\n  swap1\n  pop\n  jump\t// out\n    /* \"github.com/BLOCKCHAIN/Lottery/operation_math.sol\":70:530  contract OperationAlgebra {... */\ntag_6:\n  dataSize(sub_0)\n  dup1\n  dataOffset(sub_0)\n  0x00\n  codecopy\n  0x00\n  return\nstop\n\nsub_0: assembly {\n        /* \"github.com/BLOCKCHAIN/Lottery/operation_math.sol\":70:530  contract OperationAlgebra {... */\n      mstore(0x40, 0x80)\n      callvalue\n      dup1\n      iszero\n      tag_1\n      jumpi\n      0x00\n      dup1\n      revert\n    tag_1:\n      pop\n      jumpi(tag_2, lt(calldatasize, 0x04))\n      shr(0xe0, calldataload(0x00))\n      dup1\n      0x0dbe671f\n      eq\n      tag_3\n      jumpi\n      dup1\n      0x4df7e3d0\n      eq\n      tag_4\n      jumpi\n      dup1\n      0x4f2be91f\n      eq\n      tag_5\n      jumpi\n      dup1\n      0xdf09a2da\n      eq\n      tag_6\n      jumpi\n      dup1\n      0xf3593cd0\n      eq\n      tag_7\n      jumpi\n    tag_2:\n      0x00\n      dup1\n      revert\n        /* \"github.com/BLOCKCHAIN/Lottery/operation_math.sol\":133:149  uint256 public a */\n    tag_3:\n      tag_8\n      tag_9\n      jump\t// in\n    tag_8:\n      mload(0x40)\n      tag_10\n      swap2\n      swap1\n      tag_11\n      jump\t// in\n    tag_10:\n      mload(0x40)\n      dup1\n      swap2\n      sub\n      swap1\n      return\n        /* \"github.com/BLOCKCHAIN/Lottery/operation_math.sol\":155:171  uint256 public b */\n    tag_4:\n      tag_12\n      tag_13\n      jump\t// in\n    tag_12:\n      mload(0x40)\n      tag_14\n      swap2\n      swap1\n      tag_11\n      jump\t// in\n    tag_14:\n      mload(0x40)\n      dup1\n      swap2\n      sub\n      swap1\n      return\n        /* \"github.com/BLOCKCHAIN/Lottery/operation_math.sol\":279:355  function add() public view returns (uint256) {... */\n    tag_5:\n      tag_15\n      tag_16\n      jump\t// in\n    tag_15:\n      mload(0x40)\n      tag_17\n      swap2\n      swap1\n      tag_11\n      jump\t// in\n    tag_17:\n      mload(0x40)\n      dup1\n      swap2\n      sub\n      swap1\n      return\n        /* \"github.com/BLOCKCHAIN/Lottery/operation_math.sol\":361:442  function substract() public view returns(uint256) {... */\n    tag_6:\n      tag_18\n      tag_19\n      jump\t// in\n    tag_18:\n      mload(0x40)\n      tag_20\n      swap2\n      swap1\n      tag_11\n      jump\t// in\n    tag_20:\n      mload(0x40)\n      dup1\n      swap2\n      sub\n      swap1\n      return\n        /* \"github.com/BLOCKCHAIN/Lottery/operation_math.sol\":448:528  function multiply() public view returns(uint256) {... */\n    tag_7:\n      tag_21\n      tag_22\n      jump\t// in\n    tag_21:\n      mload(0x40)\n      tag_23\n      swap2\n      swap1\n      tag_11\n      jump\t// in\n    tag_23:\n      mload(0x40)\n      dup1\n      swap2\n      sub\n      swap1\n      return\n        /* \"github.com/BLOCKCHAIN/Lottery/operation_math.sol\":133:149  uint256 public a */\n    tag_9:\n      sload(0x00)\n      dup2\n      jump\t// out\n        /* \"github.com/BLOCKCHAIN/Lottery/operation_math.sol\":155:171  uint256 public b */\n    tag_13:\n      sload(0x01)\n      dup2\n      jump\t// out\n        /* \"github.com/BLOCKCHAIN/Lottery/operation_math.sol\":279:355  function add() public view returns (uint256) {... */\n    tag_16:\n        /* \"github.com/BLOCKCHAIN/Lottery/operation_math.sol\":315:322  uint256 */\n      0x00\n        /* \"github.com/BLOCKCHAIN/Lottery/operation_math.sol\":346:347  b */\n      sload(0x01)\n        /* \"github.com/BLOCKCHAIN/Lottery/operation_math.sol\":342:343  a */\n      sload(0x00)\n        /* \"github.com/BLOCKCHAIN/Lottery/operation_math.sol\":342:347  a + b */\n      tag_25\n      swap2\n      swap1\n      tag_26\n      jump\t// in\n    tag_25:\n        /* \"github.com/BLOCKCHAIN/Lottery/operation_math.sol\":334:348  return (a + b) */\n      swap1\n      pop\n        /* \"github.com/BLOCKCHAIN/Lottery/operation_math.sol\":279:355  function add() public view returns (uint256) {... */\n      swap1\n      jump\t// out\n        /* \"github.com/BLOCKCHAIN/Lottery/operation_math.sol\":361:442  function substract() public view returns(uint256) {... */\n    tag_19:\n        /* \"github.com/BLOCKCHAIN/Lottery/operation_math.sol\":402:409  uint256 */\n      0x00\n        /* \"github.com/BLOCKCHAIN/Lottery/operation_math.sol\":433:434  b */\n      sload(0x01)\n        /* \"github.com/BLOCKCHAIN/Lottery/operation_math.sol\":429:430  a */\n      sload(0x00)\n        /* \"github.com/BLOCKCHAIN/Lottery/operation_math.sol\":429:434  a - b */\n      tag_28\n      swap2\n      swap1\n      tag_29\n      jump\t// in\n    tag_28:\n        /* \"github.com/BLOCKCHAIN/Lottery/operation_math.sol\":421:435  return (a - b) */\n      swap1\n      pop\n        /* \"github.com/BLOCKCHAIN/Lottery/operation_math.sol\":361:442  function substract() public view returns(uint256) {... */\n      swap1\n      jump\t// out\n        /* \"github.com/BLOCKCHAIN/Lottery/operation_math.sol\":448:528  function multiply() public view returns(uint256) {... */\n    tag_22:\n        /* \"github.com/BLOCKCHAIN/Lottery/operation_math.sol\":488:495  uint256 */\n      0x00\n        /* \"github.com/BLOCKCHAIN/Lottery/operation_math.sol\":519:520  b */\n      sload(0x01)\n        /* \"github.com/BLOCKCHAIN/Lottery/operation_math.sol\":515:516  a */\n      sload(0x00)\n        /* \"github.com/BLOCKCHAIN/Lottery/operation_math.sol\":515:520  a * b */\n      tag_31\n      swap2\n      swap1\n      tag_32\n      jump\t// in\n    tag_31:\n        /* \"github.com/BLOCKCHAIN/Lottery/operation_math.sol\":507:521  return (a * b) */\n      swap1\n      pop\n        /* \"github.com/BLOCKCHAIN/Lottery/operation_math.sol\":448:528  function multiply() public view returns(uint256) {... */\n      swap1\n      jump\t// out\n        /* \"#utility.yul\":7:84   */\n    tag_33:\n        /* \"#utility.yul\":44:51   */\n      0x00\n        /* \"#utility.yul\":73:78   */\n      dup2\n        /* \"#utility.yul\":62:78   */\n      swap1\n      pop\n        /* \"#utility.yul\":7:84   */\n      swap2\n      swap1\n      pop\n      jump\t// out\n        /* \"#utility.yul\":90:208   */\n    tag_34:\n        /* \"#utility.yul\":177:201   */\n      tag_39\n        /* \"#utility.yul\":195:200   */\n      dup2\n        /* \"#utility.yul\":177:201   */\n      tag_33\n      jump\t// in\n    tag_39:\n        /* \"#utility.yul\":172:175   */\n      dup3\n        /* \"#utility.yul\":165:202   */\n      mstore\n        /* \"#utility.yul\":90:208   */\n      pop\n      pop\n      jump\t// out\n        /* \"#utility.yul\":214:436   */\n    tag_11:\n        /* \"#utility.yul\":307:311   */\n      0x00\n        /* \"#utility.yul\":345:347   */\n      0x20\n        /* \"#utility.yul\":334:343   */\n      dup3\n        /* \"#utility.yul\":330:348   */\n      add\n        /* \"#utility.yul\":322:348   */\n      swap1\n      pop\n        /* \"#utility.yul\":358:429   */\n      tag_41\n        /* \"#utility.yul\":426:427   */\n      0x00\n        /* \"#utility.yul\":415:424   */\n      dup4\n        /* \"#utility.yul\":411:428   */\n      add\n        /* \"#utility.yul\":402:408   */\n      dup5\n        /* \"#utility.yul\":358:429   */\n      tag_34\n      jump\t// in\n    tag_41:\n        /* \"#utility.yul\":214:436   */\n      swap3\n      swap2\n      pop\n      pop\n      jump\t// out\n        /* \"#utility.yul\":442:622   */\n    tag_35:\n        /* \"#utility.yul\":490:567   */\n      0x4e487b7100000000000000000000000000000000000000000000000000000000\n        /* \"#utility.yul\":487:488   */\n      0x00\n        /* \"#utility.yul\":480:568   */\n      mstore\n        /* \"#utility.yul\":587:591   */\n      0x11\n        /* \"#utility.yul\":584:585   */\n      0x04\n        /* \"#utility.yul\":577:592   */\n      mstore\n        /* \"#utility.yul\":611:615   */\n      0x24\n        /* \"#utility.yul\":608:609   */\n      0x00\n        /* \"#utility.yul\":601:616   */\n      revert\n        /* \"#utility.yul\":628:819   */\n    tag_26:\n        /* \"#utility.yul\":668:671   */\n      0x00\n        /* \"#utility.yul\":687:707   */\n      tag_44\n        /* \"#utility.yul\":705:706   */\n      dup3\n        /* \"#utility.yul\":687:707   */\n      tag_33\n      jump\t// in\n    tag_44:\n        /* \"#utility.yul\":682:707   */\n      swap2\n      pop\n        /* \"#utility.yul\":721:741   */\n      tag_45\n        /* \"#utility.yul\":739:740   */\n      dup4\n        /* \"#utility.yul\":721:741   */\n      tag_33\n      jump\t// in\n    tag_45:\n        /* \"#utility.yul\":716:741   */\n      swap3\n      pop\n        /* \"#utility.yul\":764:765   */\n      dup3\n        /* \"#utility.yul\":761:762   */\n      dup3\n        /* \"#utility.yul\":757:766   */\n      add\n        /* \"#utility.yul\":750:766   */\n      swap1\n      pop\n        /* \"#utility.yul\":785:788   */\n      dup1\n        /* \"#utility.yul\":782:783   */\n      dup3\n        /* \"#utility.yul\":779:789   */\n      gt\n        /* \"#utility.yul\":776:812   */\n      iszero\n      tag_46\n      jumpi\n        /* \"#utility.yul\":792:810   */\n      tag_47\n      tag_35\n      jump\t// in\n    tag_47:\n        /* \"#utility.yul\":776:812   */\n    tag_46:\n        /* \"#utility.yul\":628:819   */\n      swap3\n      swap2\n      pop\n      pop\n      jump\t// out\n        /* \"#utility.yul\":825:1019   */\n    tag_29:\n        /* \"#utility.yul\":865:869   */\n      0x00\n        /* \"#utility.yul\":885:905   */\n      tag_49\n        /* \"#utility.yul\":903:904   */\n      dup3\n        /* \"#utility.yul\":885:905   */\n      tag_33\n      jump\t// in\n    tag_49:\n        /* \"#utility.yul\":880:905   */\n      swap2\n      pop\n        /* \"#utility.yul\":919:939   */\n      tag_50\n        /* \"#utility.yul\":937:938   */\n      dup4\n        /* \"#utility.yul\":919:939   */\n      tag_33\n      jump\t// in\n    tag_50:\n        /* \"#utility.yul\":914:939   */\n      swap3\n      pop\n        /* \"#utility.yul\":963:964   */\n      dup3\n        /* \"#utility.yul\":960:961   */\n      dup3\n        /* \"#utility.yul\":956:965   */\n      sub\n        /* \"#utility.yul\":948:965   */\n      swap1\n      pop\n        /* \"#utility.yul\":987:988   */\n      dup2\n        /* \"#utility.yul\":981:985   */\n      dup2\n        /* \"#utility.yul\":978:989   */\n      gt\n        /* \"#utility.yul\":975:1012   */\n      iszero\n      tag_51\n      jumpi\n        /* \"#utility.yul\":992:1010   */\n      tag_52\n      tag_35\n      jump\t// in\n    tag_52:\n        /* \"#utility.yul\":975:1012   */\n    tag_51:\n        /* \"#utility.yul\":825:1019   */\n      swap3\n      swap2\n      pop\n      pop\n      jump\t// out\n        /* \"#utility.yul\":1025:1435   */\n    tag_32:\n        /* \"#utility.yul\":1065:1072   */\n      0x00\n        /* \"#utility.yul\":1088:1108   */\n      tag_54\n        /* \"#utility.yul\":1106:1107   */\n      dup3\n        /* \"#utility.yul\":1088:1108   */\n      tag_33\n      jump\t// in\n    tag_54:\n        /* \"#utility.yul\":1083:1108   */\n      swap2\n      pop\n        /* \"#utility.yul\":1122:1142   */\n      tag_55\n        /* \"#utility.yul\":1140:1141   */\n      dup4\n        /* \"#utility.yul\":1122:1142   */\n      tag_33\n      jump\t// in\n    tag_55:\n        /* \"#utility.yul\":1117:1142   */\n      swap3\n      pop\n        /* \"#utility.yul\":1177:1178   */\n      dup3\n        /* \"#utility.yul\":1174:1175   */\n      dup3\n        /* \"#utility.yul\":1170:1179   */\n      mul\n        /* \"#utility.yul\":1199:1229   */\n      tag_56\n        /* \"#utility.yul\":1217:1228   */\n      dup2\n        /* \"#utility.yul\":1199:1229   */\n      tag_33\n      jump\t// in\n    tag_56:\n        /* \"#utility.yul\":1188:1229   */\n      swap2\n      pop\n        /* \"#utility.yul\":1378:1379   */\n      dup3\n        /* \"#utility.yul\":1369:1376   */\n      dup3\n        /* \"#utility.yul\":1365:1380   */\n      div\n        /* \"#utility.yul\":1362:1363   */\n      dup5\n        /* \"#utility.yul\":1359:1381   */\n      eq\n        /* \"#utility.yul\":1339:1340   */\n      dup4\n        /* \"#utility.yul\":1332:1341   */\n      iszero\n        /* \"#utility.yul\":1312:1395   */\n      or\n        /* \"#utility.yul\":1289:1428   */\n      tag_57\n      jumpi\n        /* \"#utility.yul\":1408:1426   */\n      tag_58\n      tag_35\n      jump\t// in\n    tag_58:\n        /* \"#utility.yul\":1289:1428   */\n    tag_57:\n        /* \"#utility.yul\":1073:1435   */\n      pop\n        /* \"#utility.yul\":1025:1435   */\n      swap3\n      swap2\n      pop\n      pop\n      jump\t// out\n\n    auxdata: 0xa2646970667358221220d8256a6d6b9d9eccf88e45f8d3dfd1a316ca2d170481c2cda595743c5d8beccc64736f6c63430008160033\n}\n",
				"bytecode": {
					"linkReferences": {},
					"object": "608060405234801561000f575f80fd5b5060405161033b38038061033b8339818101604052810190610031919061007c565b815f819055508060018190555050506100ba565b5f80fd5b5f819050919050565b61005b81610049565b8114610065575f80fd5b50565b5f8151905061007681610052565b92915050565b5f806040838503121561009257610091610045565b5b5f61009f85828601610068565b92505060206100b085828601610068565b9150509250929050565b610274806100c75f395ff3fe608060405234801561000f575f80fd5b5060043610610055575f3560e01c80630dbe671f146100595780634df7e3d0146100775780634f2be91f14610095578063df09a2da146100b3578063f3593cd0146100d1575b5f80fd5b6100616100ef565b60405161006e9190610151565b60405180910390f35b61007f6100f4565b60405161008c9190610151565b60405180910390f35b61009d6100fa565b6040516100aa9190610151565b60405180910390f35b6100bb61010f565b6040516100c89190610151565b60405180910390f35b6100d9610124565b6040516100e69190610151565b60405180910390f35b5f5481565b60015481565b5f6001545f5461010a9190610197565b905090565b5f6001545f5461011f91906101ca565b905090565b5f6001545f5461013491906101fd565b905090565b5f819050919050565b61014b81610139565b82525050565b5f6020820190506101645f830184610142565b92915050565b7f4e487b71000000000000000000000000000000000000000000000000000000005f52601160045260245ffd5b5f6101a182610139565b91506101ac83610139565b92508282019050808211156101c4576101c361016a565b5b92915050565b5f6101d482610139565b91506101df83610139565b92508282039050818111156101f7576101f661016a565b5b92915050565b5f61020782610139565b915061021283610139565b925082820261022081610139565b915082820484148315176102375761023661016a565b5b509291505056fea2646970667358221220d8256a6d6b9d9eccf88e45f8d3dfd1a316ca2d170481c2cda595743c5d8beccc64736f6c63430008160033",
					"opcodes": "PUSH1 0x80 PUSH1 0x40 MSTORE CALLVALUE DUP1 ISZERO PUSH2 0xF JUMPI PUSH0 DUP1 REVERT JUMPDEST POP PUSH1 0x40 MLOAD PUSH2 0x33B CODESIZE SUB DUP1 PUSH2 0x33B DUP4 CODECOPY DUP2 DUP2 ADD PUSH1 0x40 MSTORE DUP2 ADD SWAP1 PUSH2 0x31 SWAP2 SWAP1 PUSH2 0x7C JUMP JUMPDEST DUP2 PUSH0 DUP2 SWAP1 SSTORE POP DUP1 PUSH1 0x1 DUP2 SWAP1 SSTORE POP POP POP PUSH2 0xBA JUMP JUMPDEST PUSH0 DUP1 REVERT JUMPDEST PUSH0 DUP2 SWAP1 POP SWAP2 SWAP1 POP JUMP JUMPDEST PUSH2 0x5B DUP2 PUSH2 0x49 JUMP JUMPDEST DUP2 EQ PUSH2 0x65 JUMPI PUSH0 DUP1 REVERT JUMPDEST POP JUMP JUMPDEST PUSH0 DUP2 MLOAD SWAP1 POP PUSH2 0x76 DUP2 PUSH2 0x52 JUMP JUMPDEST SWAP3 SWAP2 POP POP JUMP JUMPDEST PUSH0 DUP1 PUSH1 0x40 DUP4 DUP6 SUB SLT ISZERO PUSH2 0x92 JUMPI PUSH2 0x91 PUSH2 0x45 JUMP JUMPDEST JUMPDEST PUSH0 PUSH2 0x9F DUP6 DUP3 DUP7 ADD PUSH2 0x68 JUMP JUMPDEST SWAP3 POP POP PUSH1 0x20 PUSH2 0xB0 DUP6 DUP3 DUP7 ADD PUSH2 0x68 JUMP JUMPDEST SWAP2 POP POP SWAP3 POP SWAP3 SWAP1 POP JUMP JUMPDEST PUSH2 0x274 DUP1 PUSH2 0xC7 PUSH0 CODECOPY PUSH0 RETURN INVALID PUSH1 0x80 PUSH1 0x40 MSTORE CALLVALUE DUP1 ISZERO PUSH2 0xF JUMPI PUSH0 DUP1 REVERT JUMPDEST POP PUSH1 0x4 CALLDATASIZE LT PUSH2 0x55 JUMPI PUSH0 CALLDATALOAD PUSH1 0xE0 SHR DUP1 PUSH4 0xDBE671F EQ PUSH2 0x59 JUMPI DUP1 PUSH4 0x4DF7E3D0 EQ PUSH2 0x77 JUMPI DUP1 PUSH4 0x4F2BE91F EQ PUSH2 0x95 JUMPI DUP1 PUSH4 0xDF09A2DA EQ PUSH2 0xB3 JUMPI DUP1 PUSH4 0xF3593CD0 EQ PUSH2 0xD1 JUMPI JUMPDEST PUSH0 DUP1 REVERT JUMPDEST PUSH2 0x61 PUSH2 0xEF JUMP JUMPDEST PUSH1 0x40 MLOAD PUSH2 0x6E SWAP2 SWAP1 PUSH2 0x151 JUMP JUMPDEST PUSH1 0x40 MLOAD DUP1 SWAP2 SUB SWAP1 RETURN JUMPDEST PUSH2 0x7F PUSH2 0xF4 JUMP JUMPDEST PUSH1 0x40 MLOAD PUSH2 0x8C SWAP2 SWAP1 PUSH2 0x151 JUMP JUMPDEST PUSH1 0x40 MLOAD DUP1 SWAP2 SUB SWAP1 RETURN JUMPDEST PUSH2 0x9D PUSH2 0xFA JUMP JUMPDEST PUSH1 0x40 MLOAD PUSH2 0xAA SWAP2 SWAP1 PUSH2 0x151 JUMP JUMPDEST PUSH1 0x40 MLOAD DUP1 SWAP2 SUB SWAP1 RETURN JUMPDEST PUSH2 0xBB PUSH2 0x10F JUMP JUMPDEST PUSH1 0x40 MLOAD PUSH2 0xC8 SWAP2 SWAP1 PUSH2 0x151 JUMP JUMPDEST PUSH1 0x40 MLOAD DUP1 SWAP2 SUB SWAP1 RETURN JUMPDEST PUSH2 0xD9 PUSH2 0x124 JUMP JUMPDEST PUSH1 0x40 MLOAD PUSH2 0xE6 SWAP2 SWAP1 PUSH2 0x151 JUMP JUMPDEST PUSH1 0x40 MLOAD DUP1 SWAP2 SUB SWAP1 RETURN JUMPDEST PUSH0 SLOAD DUP2 JUMP JUMPDEST PUSH1 0x1 SLOAD DUP2 JUMP JUMPDEST PUSH0 PUSH1 0x1 SLOAD PUSH0 SLOAD PUSH2 0x10A SWAP2 SWAP1 PUSH2 0x197 JUMP JUMPDEST SWAP1 POP SWAP1 JUMP JUMPDEST PUSH0 PUSH1 0x1 SLOAD PUSH0 SLOAD PUSH2 0x11F SWAP2 SWAP1 PUSH2 0x1CA JUMP JUMPDEST SWAP1 POP SWAP1 JUMP JUMPDEST PUSH0 PUSH1 0x1 SLOAD PUSH0 SLOAD PUSH2 0x134 SWAP2 SWAP1 PUSH2 0x1FD JUMP JUMPDEST SWAP1 POP SWAP1 JUMP JUMPDEST PUSH0 DUP2 SWAP1 POP SWAP2 SWAP1 POP JUMP JUMPDEST PUSH2 0x14B DUP2 PUSH2 0x139 JUMP JUMPDEST DUP3 MSTORE POP POP JUMP JUMPDEST PUSH0 PUSH1 0x20 DUP3 ADD SWAP1 POP PUSH2 0x164 PUSH0 DUP4 ADD DUP5 PUSH2 0x142 JUMP JUMPDEST SWAP3 SWAP2 POP POP JUMP JUMPDEST PUSH32 0x4E487B7100000000000000000000000000000000000000000000000000000000 PUSH0 MSTORE PUSH1 0x11 PUSH1 0x4 MSTORE PUSH1 0x24 PUSH0 REVERT JUMPDEST PUSH0 PUSH2 0x1A1 DUP3 PUSH2 0x139 JUMP JUMPDEST SWAP2 POP PUSH2 0x1AC DUP4 PUSH2 0x139 JUMP JUMPDEST SWAP3 POP DUP3 DUP3 ADD SWAP1 POP DUP1 DUP3 GT ISZERO PUSH2 0x1C4 JUMPI PUSH2 0x1C3 PUSH2 0x16A JUMP JUMPDEST JUMPDEST SWAP3 SWAP2 POP POP JUMP JUMPDEST PUSH0 PUSH2 0x1D4 DUP3 PUSH2 0x139 JUMP JUMPDEST SWAP2 POP PUSH2 0x1DF DUP4 PUSH2 0x139 JUMP JUMPDEST SWAP3 POP DUP3 DUP3 SUB SWAP1 POP DUP2 DUP2 GT ISZERO PUSH2 0x1F7 JUMPI PUSH2 0x1F6 PUSH2 0x16A JUMP JUMPDEST JUMPDEST SWAP3 SWAP2 POP POP JUMP JUMPDEST PUSH0 PUSH2 0x207 DUP3 PUSH2 0x139 JUMP JUMPDEST SWAP2 POP PUSH2 0x212 DUP4 PUSH2 0x139 JUMP JUMPDEST SWAP3 POP DUP3 DUP3 MUL PUSH2 0x220 DUP2 PUSH2 0x139 JUMP JUMPDEST SWAP2 POP DUP3 DUP3 DIV DUP5 EQ DUP4 ISZERO OR PUSH2 0x237 JUMPI PUSH2 0x236 PUSH2 0x16A JUMP JUMPDEST JUMPDEST POP SWAP3 SWAP2 POP POP JUMP INVALID LOG2 PUSH5 0x6970667358 0x22 SLT KECCAK256 0xD8 0x25 PUSH11 0x6D6B9D9ECCF88E45F8D3DF 0xD1 LOG3 AND 0xCA 0x2D OR DIV DUP2 0xC2 0xCD 0xA5 SWAP6 PUSH21 0x3C5D8BECCC64736F6C634300081600330000000000 "
				},
				"gasEstimates": {
					"creation": {
						"codeDepositCost": "125600",
						"executionCost": "infinite",
						"totalCost": "infinite"
					},
					"external": {
						"a()": "2402",
						"add()": "infinite",
						"b()": "2425",
						"multiply()": "infinite",
						"substract()": "infinite"
					}
				},
				"methodIdentifiers": {
					"a()": "0dbe671f",
					"add()": "4f2be91f",
					"b()": "4df7e3d0",
					"multiply()": "f3593cd0",
					"substract()": "df09a2da"
				}
			},
			"storageLayout": {
				"storage": [
					{
						"astId": 3,
						"contract": "github.com/BLOCKCHAIN/Lottery/operation_math.sol:OperationAlgebra",
						"label": "a",
						"offset": 0,
						"slot": "0",
						"type": "t_uint256"
					},
					{
						"astId": 5,
						"contract": "github.com/BLOCKCHAIN/Lottery/operation_math.sol:OperationAlgebra",
						"label": "b",
						"offset": 0,
						"slot": "1",
						"type": "t_uint256"
					}
				],
				"types": {
					"t_uint256": {
						"encoding": "inplace",
						"label": "uint256",
						"numberOfBytes": "32"
					}
				}
			},
			"userdoc": {
				"kind": "user",
				"methods": {},
				"version": 1
			}
		}
	}
}